:020000040800F2
:10000000004D002025030008D71F0008A51D00088B
:10001000D51F00087F050008BD2200080000000071
:100020000000000000000000000000006502000861
:10003000D906000800000000C102000841200008A5
:100040003F0300083F0300083F0300083F03000888
:100050003F0300083F0300083F0300083F03000878
:100060003F0300083F0300083F0300083F03000868
:10007000B10500083F0300083F0300083F030008E4
:100080003F0300083F0300083F0300088D050008F8
:10009000810500083F0300083F0300083F030008F4
:1000A0003F0300083F0300083F0300083F03000828
:1000B0003F0300083F0300083F0300083F03000818
:1000C0003F0300083F0300083F0300083F03000808
:1000D0003F0300083F0300083F030008092200080F
:1000E0003F0300083F0300083F0300083F030008E8
:1000F0003F0300083F0300083F0300083F030008D8
:100100003F0300083F0300083F0300083F030008C7
:100110003F0300083F0300083F0300083F030008B7
:100120003F0300083F0300083F0300083F030008A7
:100130003F0300080000000000000000A5050008C3
:10014000990500083F0300083F0300083F0300082B
:100150003F0300083F030008BD0500083F030008F7
:100160003F0300083F0300083F0300083F03000867
:100170003F0300083F0300083F03000800000000A1
:10018000000000003F030008000000000000000025
:100190003F03000800000000000000003F030008CB
:1001A0000000000000000000000000003F03000805
:1001B0003F0300083F0300083F0300083F03000817
:1001C0003F03000800F002F800F03CF80AA090E8B5
:1001D000000C82448344AAF10107DA4501D100F002
:1001E00031F8AFF2090EBAE80F0013F0010F18BF93
:1001F000FB1A43F001031847AC350000CC35000072
:10020000103A24BF78C878C1FAD8520724BF30C842
:1002100030C144BF04680C60704700000023002414
:1002200000250026103A28BF78C1FBD8520728BF06
:1002300030C148BF0B6070471FB503F063FA1FBDA4
:1002400010B510BD00F061F91146FFF7F5FF02F09F
:10025000CDF900F07FF903B4FFF7F2FF03BC00F023
:1002600087F900002C4B19680868B0E8F04F80F35C
:100270000988BFF36F8F4FF0000080F3118870473B
:100280000000000008480068006880F308884FF00C
:10029000000080F3148862B661B6BFF34F8FBFF3DE
:1002A0006F8F00DF00BF00BF08ED00E0DFF80C003B
:1002B000016841F470010160704700BF88ED00E003
:1002C000EFF30980BFF36F8F134B1A681EF0100F06
:1002D00008BF20ED108A20E9F04F106009B44FF0FC
:1002E000500080F31188BFF34F8FBFF36F8F03F07F
:1002F0001DF84FF0000080F3118809BC19680868E8
:10030000B0E8F04F1EF0100F08BFB0EC108A80F379
:100310000988BFF36F8F70476C000020EFF30580F2
:10032000704700000948804709480047FEE7FEE79C
:10033000FEE7FEE7FEE7FEE7FEE7FEE7FEE7FEE795
:1003400004480549054A064B70470000ED200008A7
:10035000C501000800470020004D00200049002092
:100360000049002053EA020C00F069802DE9F04BAF
:100370004FF00006002B1FBFB3FA83F503FA05F414
:1003800024FA05F65E4012BF1643B2FA82F502FA6D
:1003900005F4C5F120051EBF22FA05FC44EA0C0451
:1003A000203556EA044C4FEA144418BF641C4FF041
:1003B00000084FF00009904271EB030C39D300297B
:1003C00019BFB1FA81F701FA07F6B0FA80F700FA1F
:1003D00007F6C7F120071EBF20FA07FC46EA0C0605
:1003E0002037B6FBF4FCA7EB0507103F07F01F0B07
:1003F000CBF120060CFA0BFB2CFA06F644BFB346F1
:100400000026202FA4BF5E464FF0000B5BEA060CCF
:1004100008BF4FF0010B19EB0B09ABFB027C48EB5B
:100420000608C01B06FB02CC0BFB03CC71EB0C01D6
:10043000C1E70B46024641464846BDE8F08B13B57E
:100440004FF000004FF00001AFF30080BDE81C400A
:10045000704710B5203AC0F00B80B1E81850203A30
:10046000A0E81850B1E81850A0E81850BFF4F5AF54
:100470005FEA027C24BFB1E81850A0E8185044BFDE
:1004800018C918C0BDE810405FEA827C24BF51F84B
:10049000043B40F8043B08BF7047D20728BF31F83F
:1004A000023B48BF11F8012B28BF20F8023B48BF90
:1004B00000F8012B70474FF0000200B51346944638
:1004C0009646203922BFA0E80C50A0E80C50B1F1AC
:1004D0002001BFF4F7AF090728BFA0E80C5048BFC0
:1004E0000CC05DF804EB890028BF40F8042B08BF5E
:1004F000704748BF20F8022B11F0804F18BF00F85A
:10050000012B7047704770477047754600F02CF814
:10051000AE4605006946534620F00700854618B0F0
:1005200020B5FFF70DFFBDE820404FF000064FF06B
:1005300000074FF000084FF0000B21F00701AC4618
:10054000ACE8C009ACE8C009ACE8C009ACE8C00937
:100550008D46704710B50446AFF300802046BDE8D5
:100560001040FFF778BE000000487047A04600200A
:1005700001491820ABBEFEE7260002007047FEE7E7
:10058000014800F092BA000028030020014800F062
:100590008CBA000028030020014800F086BA000051
:1005A00050030020014800F080BA000050030020F2
:1005B000014800F05DBD000060040020014800F02B
:1005C00057BD00000004002001681823CAB2103A89
:1005D000B2FBF3F2054B6FF30901032A9B5CC36581
:1005E00000D9091D8165084670470000643700087E
:1005F00010B5014600208B698A6A4FF0C07453B170
:10060000B3F5005F15D072B1012A0CD0022A0AD0CE
:10061000032A09D104E01AB1012A06D0022A03D123
:10062000C96AC90100D5012010BDC96AA142FAD02A
:1006300010BD002AF7D0012AF2D0022AF3D0032AF3
:10064000F3D010BD2DED028B04249FED1F8A1F4DAA
:1006500004EB840000EBC400B0EE480A05EB800018
:10066000F0EE400A1A4900F5807002F038FA641C76
:10067000E4B2082CECD302F001F9154E9FED158A77
:10068000361F002001F09CFF012803D185ED358A3B
:1006900085ED2D8A012001F093FF012801D185ED20
:1006A0003D8A02F0D9F801F025FF01F019FE012082
:1006B00002F08CF90024204601F082FF3055641CC2
:1006C000E4B2042CF7D3DCE700007A466042002055
:1006D0002400002000000000704772B6FEE7000012
:1006E0002DED028B00259FED2F8ADFED2F8A2F4CF9
:1006F00005EB850000EBC500B0EE480A04EB800670
:1007000006F58070F0EE400A294902F0E8F9B0EEF3
:10071000680A274906F52870F0EE400A0C3102F00D
:10072000DEF96D1CEDB2042DE2D3012291032148C4
:1007300000F0CBFE9FED208A204F214D4FF47A7BB5
:1007400040F2262941F2873642F20E784FF0000A35
:10075000022001F035FF012801D184ED158AB5F999
:100760000400B84207DAB4F97A108A19424502D86F
:10077000A4F866B00CE0484508DDB4F97A008119A8
:10078000414503D80F48A4F8660001E0A4F866A02C
:1007900001F04CFF02F040FC01F0D6FD012002F018
:1007A00015F9D5E700007A4600401C46604200205B
:1007B000380000200008024000000000DAFDFFFFC2
:1007C000C004002018FCFFFF90F82020012A07D069
:1007D000022A05D0416A41F480214162012070471C
:1007E000006842690A43426100207047F0B590F802
:1007F00020500468A468012D05D0022D03D0416A61
:1008000041F4802153E014F0406F01D1E5004BD555
:10081000C4F30164022C03D9416A41F4000146E0AB
:100820000125A5401D608D684FF4C0739DB1CE6851
:1008300035434E6845EAC605066803EB0417F551D3
:100840004FF4C275076805EB04150E697E51097DEA
:10085000012905D009E00E88CD6845EA4655EBE749
:1008600001684E5946F480764E511179D2F8055000
:100870004FF4C67641EA0525016806EB04168D5152
:100880001178D2F801204FF4C47541EA02210268C0
:1008900005EB04155151006803EB0411425842F076
:1008A000010242500020F0BD416A41F40011416252
:1008B0000120F0BD10B590F82020012A07D0022AAF
:1008C00005D0416A41F480214162012010BD3B48BE
:1008D000D0F8002242F00102C0F80022D0F8002235
:1008E00022F47C52C0F80022D0F800224B6A42EA7F
:1008F0000322C0F800220A7D02F01F0301229A4061
:10090000D0F81C329343C0F81C32CB69B3B9D0F88D
:100910000C329343C0F80C328C894B6864F31F434C
:100920004C6900EBC404C4F840320C890B6864F3D2
:100930001F434C6900EBC404C4F84432CB69012B5B
:1009400016D1D0F80C321343C0F80C320C884B6827
:1009500064F31F434C6900EBC404C4F840320C89B3
:10096000CB6864F31F434C6900EBC404C4F8443201
:100970008B69002BD0F804320ED01343C0F8043238
:100980000B69002BD0F8143208D01343C0F814328E
:10099000096A012904D008E09343EFE79343F5E7A0
:1009A000D0F81C121143C0F81C12D0F8001221F02C
:1009B0000101C0F80012002010BD000000640040DA
:1009C000704730B590F82040012C05D0022C03D0A0
:1009D000416A41F480215DE00468002955D0246912
:1009E000A40754D04FF4D874056804EB01142D59B2
:1009F00015F00405956005682D594ED0ED08556039
:100A000005682C5904F00204D4604FF4DA740568C8
:100A100004EB01142D5905F00F05156105682D59DA
:100A2000C5F30725956105682C59240C54614FF4D2
:100A3000DC72046802EB0112A4581C700468A4580C
:100A4000240A5C700468A458240C9C700468A258A2
:100A5000120EDA704FF4DE72046802EB0112A45831
:100A60001C710468A458240A5C710468A458240CFE
:100A70009C710468A258120EDA71006881B1016994
:100A800041F020010161002030BDE468A8E7416A1F
:100A900041F400114162012030BD6D0D1560AFE7DA
:100AA000C16841F02001C160EDE72DE9F05F054626
:100AB000006800244669D0F804908768D0F80CB02C
:100AC000D0F810A0D0F81880F10748D0F90714D05A
:100AD00001218160B80703D5284600F0C2FA0CE076
:100AE000780702D54FF4006407E0380702D54FF4C9
:100AF000805402E0284600F0B3FAF80516D52968BC
:100B00004FF480708860B80503D5284600F0ABFA32
:100B10000CE0780502D544F4005407E0380502D50E
:100B200044F4804402E0284600F09CFAF80316D50D
:100B300029684FF480308860B80303D5284600F058
:100B400094FA0CE0780302D544F4004407E038033B
:100B500002D544F4803402E0284600F085FA3007DC
:100B600007D55FEACB6004D52968102044F40074EF
:100B7000C86070074FF0080707D55FEA0B7004D50F
:100B80002868C760284600F0ADF9B00706D5286888
:100B9000C068800702D0284600F0A6F9700607D585
:100BA0005FEACA6004D52968102044F480640861B3
:100BB000B00607D55FEA0A7004D5286807612846A1
:100BC00000F01EFAF00606D528680069800702D0FA
:100BD000284600F016FAB00308D55FEAC96005D5CB
:100BE000296810204860284600F00CFAF00307D569
:100BF0005FEA097004D528684760284600F036FA95
:100C0000300446D55FEA497040D5F00504D55FEA67
:100C1000C87001D044F00104B00504D55FEA8870C3
:100C200001D544F00204700504D55FEA487001D58F
:100C300044F00404300529D518F0700F26D008F0D0
:100C40007000402815D006DC102809D020280AD0D2
:100C5000302816D10AE050280ED0602811D10EE0BD
:100C600044F008040DE044F010040AE044F02004CD
:100C700007E044F0400404E044F0800401E044F460
:100C800080742868816921F07001816129680420DD
:100C90004860002C05D0686A204368622846FFF748
:100CA0008FFEBDE8F09F70B5040003D094F82000DB
:100CB00010B104E0012070BD204600F081F82068EA
:100CC000016841F00101016000F004FC05460526C1
:100CD00004E000F0FFFB401B0A2811D820684068A0
:100CE000C007F6D02068016821F00201016000F021
:100CF000F1FB05460BE000F0EDFB401B0A2806D98E
:100D0000606A40F40030606284F82060D2E72068B6
:100D100040688007EFD4207E0128206801683DD01C
:100D200021F080010160607E01282068016838D0D0
:100D300021F040010160A07E01282068016833D0C5
:100D400021F020010160E07E0128206801682ED09A
:100D500041F010010160207F01282068016829D03E
:100D600021F008010160607F01282068016824D01B
:100D700021F004010160D4E902010843D4E904121E
:100D8000114308436168491E08432168C861002077
:100D90006062012084F82000002070BD41F08001D5
:100DA000C0E741F04001C5E741F02001CAE721F06A
:100DB0001001CFE741F00801D4E741F00401D9E781
:100DC0002DE9F04387B0044614216846FFF773FB12
:100DD000404B4148DFF8F8801968D4F800C03E4A1B
:100DE000022503260927DFF8F49010300024491C5F
:100DF000C4452CD11960012907D1016841F0007167
:100E00000160006800F000700590106840F002007A
:100E10001060106802AB00F0020005904FF44070C3
:100E2000CDE9000583E8D0006946484600F05AFA4B
:100E300000220521132000F0BFFB132000F0AEFBC1
:100E400000220521142000F0B7FB14203BE0DFF85E
:100E50009080C44539D1D0F800C04CF0806CC0F807
:100E600000C0D0F800C001290CF0806CCDF814C08F
:100E7000196007D1016841F000710160006800F05D
:100E800000700590106840F002001060106802AB1E
:100E900000F0020005904FF44050CDE9000583E8D2
:100EA000D0006946484600F01DFA002205213F2087
:100EB00000F082FB3F2000F071FB00220521402062
:100EC00000F07AFB402000F069FB07B0BDE8F0833A
:100ED000006400400C000020303802400004024052
:100EE000006800407047000070B5054600683F4943
:100EF0003F4C884236D13F4B3F4A00212846FFF7FE
:100F000060FD3D483B490268A2F20120082812D248
:100F1000C3B2088840BA00EE100A04EB4310B8EEE2
:100F2000400A80ED020A4B885BBA83808B885BBAEB
:100F300043838B790377A2F20522082A12D2D0B21A
:100F40000A8804EB401052BA00EE102AB8EE400AAC
:100F500080ED020A4A8852BA82808A8852BA428355
:100F6000897901772549286888423DD1214B224A59
:100F700008331C3200212846FFF723FD1E481D4977
:100F80001C3008310068A0F20122082A14D20B8814
:100F9000C21C5BBA00EE103AD2B204EB4212B8EEB9
:100FA000400A82ED220A4B885BBA22F8843F8B8884
:100FB0005BBAD3828B791376A0F20520082813D26E
:100FC0000A88C0B252BA00EE102A04EB4010B8EE04
:100FD000400A80ED220A4A8852BA20F8842F8A8873
:100FE00052BAC2828979017670BD00000064004067
:100FF00060420020520000202005002000680040D0
:10100000704770477047000070B5044690F82000A4
:10101000012804D0606A40F40020606218E00220D9
:1010200084F820002068016821F00101016000F0CF
:1010300051FA05460EE000BF00F04CFA401B0A28AA
:1010400008D9606A40F400306062052084F820000E
:10105000012070BD20684068C007EDD1606270BD9E
:10106000704770477047704770477047704700007F
:101070002DE9F84304464FF00009CDF8009063488D
:101080004FF41651A56D0068B0FBF1F72E6894F887
:101090005C10082000FA01F131420FD021680A6883
:1010A00052070BD50A6822F004020A6094F85C101B
:1010B0008840A860606D40F00100606594F85C10A5
:1010C0004FF0010808FA01F0304208D02168496960
:1010D000090604D5A860606D40F00200606594F8D0
:1010E0005C1004208840304208D0216809688907D4
:1010F00004D5A860606D40F00400606594F85C1051
:1011000010208840304218D021680968090714D59A
:10111000A86020680168490304D50068000308D569
:10112000A16C07E00168C90503D4016821F008013A
:101130000160216C09B12046884794F85C1020209A
:101140008840304231D021680968C9062DD5A86091
:1011500094F8350005282068016806D0490347D572
:10116000006800031DD4616C1CE021F016010160D1
:101170002068416921F080014161206C08B9A06CB0
:1011800020B12068016821F00801016094F85C102A
:101190003F208840A86084F8358084F83490216D21
:1011A0001FE0E16B09B120468847606D00282BD015
:1011B000606DC00714D0052084F8350020680168F0
:1011C00021F0010101600098401C0090B84203D852
:1011D00020680068C007F6D184F8358084F8349020
:1011E000E16C002910D001B02046BDE8F04308476B
:1011F0000168C905D5D4016821F01001016084F8A7
:10120000358084F83490CCE7BDE8F8831C000020DA
:101210002DE9F041044600F05DF906465CB102207C
:1012200084F83500002584F834502068016821F0E6
:10123000010101600DE00120BDE8F08100F04AF9F4
:10124000801B052805D920206065032084F835001F
:10125000F2E720680068C007F0D1226811682048D2
:101260000140D4E901031843D4E90336334318435A
:1012700063691843A3691843E3691843236A184351
:101280000843616A042903D1D4E90B1319430843C5
:10129000106020684069666A20F0070130460E43FE
:1012A000012704280CD1A06A0643E06A40B1204619
:1012B000FFF79EF920B14020606584F83570BAE7E9
:1012C000206846612046FFF77FF994F85C203F21B3
:1012D00091408160656584F835700020ACE70000BE
:1012E0003F8010F02DE9F84FDFF8ACA10022012477
:1012F00003254FF00F090AF1040BAAF1040E00BFF9
:101300000B6804FA02F63340B3426ED10F7907F04E
:101310000307012F01D0022F16D187684FEA420838
:1013200005FA08FC27EA0C07D1F80CC00CFA08FCF7
:101330004CEA070CC0F808C04768B7430E79C6F3FB
:10134000001696403E4346600E79F643B6070AD033
:10135000C6684FEA420C05FA0CF7BE438F6807FADD
:101360000CF73743C7600E7906F00306022E10D142
:10137000D60800EB8608D8F8206057074FEAD76CEC
:1013800009FA0CF7BE430F6907FA0CF73743C8F8A0
:10139000207006684FEA420C05FA0CF7BE430F793D
:1013A00007F0030707FA0CF7374307604E6816F497
:1013B000403F6BD0394E376847F480473760366816
:1013C00022F0030706F480460096354E07EB060C24
:1013D000DCF8086897074FEA177809FA08F7BE4360
:1013E000304FB84202D100271FE04FE02E4FB842E5
:1013F00001D1012719E02D4FB84201D1022714E095
:101400002B4FB84201D103270FE02A4FB84201D138
:1014100004270AE0284FB84201D1052705E0274FED
:10142000B84201D1062700E0072707FA08F737433B
:10143000CCF80878DAF800605746D1F804C09E432B
:101440005FEACC2C00D51E433E60DBF800605F46AF
:10145000D1F804C09E435FEA8C2C00D51E433E6049
:10146000DEF800607746D1F804C09E435FEA8C3C0A
:1014700000D51E433E60084F083F3E68D1F804C0C7
:101480009E435FEACC3C00D51E433E60521C102AAE
:10149000FFF436AFBDE8F88F083C01404438024005
:1014A00000300140000002400004024000080240F9
:1014B000000C0240001002400014024000180240DC
:1014C0000069084000D0012070470AB1816170476F
:1014D0000904FBE701488068704700001000002005
:1014E0000248816802781144816070471000002032
:1014F0000B4810B5016841F400710160016841F4C6
:1015000080610160016841F480710160032000F096
:1015100073F80F2000F006F800F024F8002010BD4A
:10152000003C024070B50D4D04464FF47A712878A6
:10153000B1FBF0F00A490968B1FBF0F000F040FBA4
:1015400048B9102C07D200222146501E00F034F872
:1015500000206C6070BD012070BD000010000020F4
:101560001C0000200C4882B0016841F480410160F9
:10157000006800F4804000900748001F016841F0B7
:10158000805101600068002200F0805000900F211F
:10159000901E02B000F010B844380240002809DB69
:1015A00000F01F02012191404009800000F1E0207D
:1015B000C0F8001170470000F0B40E4B1B680C46D9
:1015C000C3F30223C3F10705042D00D90425191D17
:1015D000072901D2002300E0DB1E012606FA05F1EF
:1015E000491E214099409E40761E16403143F0BC72
:1015F00000F065BE0CED00E0064900F00702086847
:101600004FF6FF03184040EA0220034A10430860E7
:10161000704700000CED00E00000FA052DE9F047EE
:101620000E46050065D0DFF81481D8F80000F7B247
:1016300000F00F00B04207D288F80070D8F8000020
:1016400000F00F00B04254D128683D4C810712D5FC
:10165000400703D5206840F4E05020602878000758
:1016600003D5206840F4604020602068A96820F01D
:10167000F000084320602878C0072DD03049686802
:101680000839012812D0022813D0032811D0096884
:10169000890700292DDA216821F003010143216027
:1016A000FFF718FF814641F2883A0EE00968890386
:1016B000EFE709688901ECE7FFF70CFFA0EB0901F0
:1016C000514502D90320BDE8F0872068696800F021
:1016D0000C00B0EB810FEFD1D8F80010404601F0BC
:1016E0000F01B14207D90770006800F00F00B04247
:1016F00001D00120E7E72878400705D52068E96890
:1017000020F4E050084320602878000706D52068C0
:10171000296920F4604040EAC100206000F038F8F8
:101720002168084AC1F30311515CC84006490860AA
:1017300006480068FFF7F6FE0020C4E7003C0240C0
:10174000083802406C3700081C00002014000020FC
:101750000448054900680968044AC1F38221515CC4
:10176000C84070471C000020083802407C37000841
:101770000448054900680968044AC1F34231515CD4
:10178000C84070471C000020083802407C37000821
:10179000224810B5006810F00C02214815D02149EC
:1017A000042A11D01D4C241F082A0FD00C2A0CD15A
:1017B0002268236802F03F025B0221D52068C0F353
:1017C0008810A0FB010120E0084610BD22682368B4
:1017D00002F03F025B0205D52068C0F38810A0FB31
:1017E000010104E02168C1F38811A1FB000100237D
:1017F000FEF7B8FD2168C1F30141491C49000AE028
:101800002168C1F38811A1FB00010023FEF7AAFDA6
:101810002168C1F30271B0FBF1F010BD083802403D
:101820000024F400001BB7002DE9F84F04007DD020
:10183000DFF878B32078ABF10407C007A7F10405FF
:1018400050D0DBF800105846C1F3810101290FD0B8
:101850000168C1F38101022902D13968490207D424
:101860000068C0F38100032809D13868400206D51A
:101870002868800336D560680028D8D032E06068D8
:10188000B0F5803F10D0B0F5A02F286810D020F41C
:1018900080302860286820F4802028606068A0B12B
:1018A000FFF718FE06460CE0286840F48030F4E7A5
:1018B00040F480202860F7E7FFF70CFE801B6428C7
:1018C00076D828688003F7D50CE0FFF703FE0646BC
:1018D00005E000BFFFF7FEFD801B6428F0D82868F4
:1018E0008003F7D42078DFF8C89280074FF0000A11
:1018F00044D5DBF80010584611F00C0F0FD00168EA
:10190000C1F38101022902D13968490207D5006873
:10191000C0F3810003280AD13868400207D4286840
:10192000800715D5E068012800D111E03AE1E068B0
:10193000B0B10120C9F80000FFF7CCFD064604E075
:10194000FFF7C8FD801B0228BAD828688007F7D5A2
:101950002868216920F0F80040EAC10028600DE005
:10196000C9F800A0FFF7B6FD064604E0FFF7B2FD98
:10197000801B02281CD828688007F7D4207800072D
:1019800027D5DFF828828B48616908F16C0881B19E
:1019900001210160FFF79EFD064604E0FFF79AFD76
:1019A000801B022804D8D8F800008007F6D510E084
:1019B00089E0C0F800A0FFF78DFD064605E000BFF6
:1019C000FFF788FD801B02287DD8D8F8000080072B
:1019D000F6D42078400769D574484FF000083830B5
:1019E0000068C0000BD471483830016841F0805164
:1019F000016000684FF0010800F0805000906E4ECA
:101A00003068C00511D4306840F480703060FFF752
:101A100061FD009006E000BFFFF75CFD0099401AF1
:101A2000022850D83068C005F6D5604EA0686836E8
:101A300001280FD00528306810D020F00100306058
:101A4000306820F004003060A068B8B1FFF742FDB4
:101A500000900FE0306840F00100F4E740F004002F
:101A60003060F7E7FFF736FD0099411A41F2883000
:101A7000814264D830688007F4D50EE0FFF72AFD74
:101A8000009007E0FFF726FD0099411A41F28830E7
:101A9000814254D830688007F4D4B8F1000F05D0E3
:101AA00042483830016821F080510160A069A8B334
:101AB000DBF80010C1F38101022947D00228C9F8E0
:101AC00060A005D000E03AE0FFF704FD044639E0ED
:101AD000FFF700FD064604E0FFF7FCFC801B022830
:101AE0002DD828688001F7D4F4E907010843E1689C
:101AF000324A490802EB0141A26841EA82110843D7
:101B0000217C40EA0160217D40EA017038600120BB
:101B1000C9F86000FFF7DEFC044606E044E000BFC1
:101B2000FFF7D8FC001B022809D828688001F7D5E8
:101B30003AE000BFFFF7CEFC001B022802D90320C9
:101B4000BDE8F88F28688001F4D42DE00128F7D093
:101B50003868E26900F48001914223D1226A00F0E2
:101B60003F0191421ED147F6C071626A0140B1EB5C
:101B7000821F17D1A26A4FF0FF3300F4403103EB0C
:101B80005202B1EB024F0DD194F82C2000F070619D
:101B9000B1EB026F06D194F8301000F0E040B0EBEA
:101BA000017F01D00120CBE70020C9E708380240BF
:101BB00000004742800E4742007000400000FFFFD7
:101BC00010B5401EB0F1807F01D3012010BD4FF051
:101BD000E02460610F21601700F071FB0020A0611C
:101BE00007202061002010BD70B5040004D094F8D7
:101BF0003D00002510B106E0012070BD84F83C5086
:101C0000204600F023F8242084F83D002068C168B5
:101C100021F40051C160204600F070FA206801698B
:101C200021F4904101612068416921F02A0141615C
:101C30002068C16841F40051C1602564202084F807
:101C40003D0084F83E00002070BD00002DE9F04FFB
:101C500087B0064614216846FEF72DFC484B3168D4
:101C6000002448480225032707224FF0006A4FF45A
:101C700080694FF4403B994233D1424914310B689B
:101C800043F010030B60096801F010010591016831
:101C900041F0010101600068029400F0010005902C
:101CA0007802CDE90005CDE9037269463648FFF7B1
:101CB00019FB374D3548E5E8020A4020A5E8110236
:101CC000334845F81449AC61C5E9074B6C62FFF72E
:101CD0009FFA08B1FEF701FD7563AE6307B0BDE87A
:101CE000F08F2C4B9942F9D1264910310B6843F4FF
:101CF00080230B60096801F480210591016841F09F
:101D000004010160016801F004010591016841F0DE
:101D100002010160006802AB00F002000590202083
:101D2000CDE90005904683E8900169461A48FFF71F
:101D3000D9FA02AB694683E89001CDE900951748CE
:101D4000FFF7D0FA124D164860352860C5E901A4A6
:101D5000C5E903496C61AC61C5E9074B28466C6273
:101D6000FFF756FA08B1FEF7B8FCB563002205216B
:101D70002720AE63FFF720FC2720FFF70FFCADE71D
:101D8000001001403038024000000240B8640240B8
:101D90000004002000480040000802400004024007
:101DA00028600240FEE700000F4810B50D490160B1
:101DB0000321416000214FF410228160C0E9031229
:101DC0004FF400124261017641768176C176017747
:101DD0004177FEF768FF002803D0BDE81040FEF70A
:101DE0007CBC10BD00640040280300200F4810B5E3
:101DF0000D4901600321416000214FF410228160F0
:101E0000C0E903124FF400124261017641768176F7
:101E1000C17601774177FEF746FF002803D0BDE881
:101E20001040FEF75ABC10BD00680040500300206F
:101E3000114808B5016841F480010160016801F4AE
:101E400080010091016841F40011016000680022E6
:101E500000F40010009005210C20FFF7ADFB0C20D2
:101E6000FFF79CFB002205214620FFF7A5FBBDE8FC
:101E700008404620FFF792BB3038024010B596B0BC
:101E80001C2211496846FEF7E4FA0021684600F07A
:101E9000A9FD0E4C0C491C2220601C3107A8FEF73E
:101EA000D8FA002107A800F09DFD074960601C22B8
:101EB00038310EA8FEF7CDFA00210EA800F092FDF1
:101EC000A06016B010BD0000103700080000002010
:101ED00070B586B014216846FEF7EDFA1E4800245E
:101EE000016841F004010160016801F004010591FD
:101EF000016841F080010160016801F080010591F5
:101F0000016841F002010160016801F002010591E0
:101F1000016841F0010101600068104E00F001000D
:101F20004FF480450590002229463046FFF7CDFA50
:101F300000950125CDE90154694630460394FFF729
:101F4000D1F94FF470708DE8310069463046FFF7E3
:101F5000C9F906B070BD00003038024000080240E8
:101F60000C4810B50A4901604FF4E131416000218D
:101F700081600C22C160C0E904128161C161FFF778
:101F800033FE002803D0BDE81040FEF7A6BB10BD0D
:101F900000100140780300200C4810B50A49016088
:101FA0000B494160002181600C22C160C0E904122C
:101FB0008161C161FFF718FE002803D0BDE8104021
:101FC000FEF78BBB10BD000000480040BC030020A2
:101FD000A0860100FEE7FEE730B5144B1C6865697A
:101FE00045F0400565611B68DC6844F01004DC6066
:101FF0000F4B1C68256825F0010525601C682568C5
:10200000ED07F7D11D680B4CAC601C68E0601868E8
:102010000161186842601868016841F4802101601C
:102020001868016841F00101016030BDBC03002067
:102030006004002004480040012000F0C7FCFBE7DA
:1020400010B5FFF74DFA01F087FA012803D0BDE87B
:10205000104001F013BA10BD30B593B0342168467A
:10206000FEF729FA14210DA8FEF725FA1D480025D0
:10207000016841F080510160006800F080501290CA
:102080001948016841F4404101600068022400F4ED
:102090004040129001200090000401908001CDE9A1
:1020A000064006200890A820CDE909040B94684654
:1020B0000C94FFF7B9FB08B172B6FEE70DA90F202B
:1020C00081E831004FF4A05010904FF480501190EF
:1020D00005210DA8FFF7A2FA002801D072B6FEE78D
:1020E00013B030BD40380240007000400248016823
:1020F00041F470010160704788ED00E070B504465E
:1021000000680169E26821F44051114301612169CD
:10211000A068E26908436169114308432168CA68FD
:1021200049F20C639A430243CA6020684169A2697C
:1021300021F440711143416131492068884202D045
:102140003049884202D1FFF713FB01E0FFF700FBA3
:10215000E2690023192164253226B2F5004F626836
:1021600028D0A0FB0101930F9200FEF7FBF8014677
:10217000B0FBF5F06FF01802504301EB800006EB66
:102180000010B0FBF5F000F0F002B1FBF5F002EB4F
:102190000012B1FBF5F06FF01803584301EB80001B
:1021A00006EB0010B0FBF5F000F00F0021681044C2
:1021B000886070BDA0FB010192185B41FEF7D2F868
:1021C0000146B0FBF5F00201B1FBF5F06FF018032A
:1021D000584301EB800006EBC000B0FBF5F000F0C7
:1021E000F80002EB4002B1FBF5F0584301EB800030
:1021F00006EBC000B0FBF5F000F00700D6E70000EA
:102200000010014000140140264818B4006801681D
:10221000890604D501684068009018BC70472249BF
:102220000968C906F9D501684068204A009010681D
:1022300001684FF024030C031D49046824F00104D5
:10224000046016D410684468C4F12404A4B20C805D
:1022500043601068016841F4002101601068016862
:1022600041F001010160122CD7D1124901F1160091
:1022700015E014686068C0F1240080B208806360D3
:102280000D498B6A23F400238B6211680A6842F0BF
:1022900001020A601228C0D1064901F13A0018BCB7
:1022A00000F060BEBC030020004800406004002035
:1022B00050000020C004002000600240FEE7090733
:1022C000090E002804DB00F1E02080F800147047BC
:1022D00000F00F0000F1E02080F8141D70470000AE
:1022E000F8B5184C002500BF04EB4516B6F90400FC
:1022F00000EE100AB6F90600F8EEC00A00EE100A69
:1023000005EB850000EBC50004EB8000B8EEC00AC9
:1023100000F5807000F090FBBDEEC00A6D1CADB200
:1023200010EE100A082D7080DED3B4F9E2000090A0
:10233000B4F9C230B4F9A220B4F98210012000F03F
:1023400083F8F8BD60420020F8B5284F284D0024DE
:1023500005EB4416B6F9040000EE100A07EB840002
:10236000F8EEC00A90ED000A04EB840000EBC40014
:1023700005EB800000F5807000F05EFBBDEEC00A4A
:10238000641CA4B210EE100A022C7080E0D3022468
:1023900005EB4416B6F9040000EE100AB6F9060083
:1023A000F8EEC00A00EE100A04EB840000EBC40053
:1023B00005EB8000B8EEC00A00F5807000F03CFB31
:1023C000BDEEC00A641CA4B210EE100A042C70808A
:1023D000DED3B5F962000090B5F94230B5F922209C
:1023E000B5F90210002000F005F8F8BD300000201B
:1023F0006042002038B5049CE0B140F2FF150F4860
:10240000056000258560C560082505610C480D0A3A
:1024100005704170110A8170C270190A017143710F
:10242000210A8171C47102466B4604490548FEF7D2
:10243000DDF938BD4FF40075E1E7000058050020D4
:10244000620000202803002038B5049CE0B140F26F
:10245000FF150F48056000258560C56008250561EA
:102460000C480D0A05704170110A8170C270190A7A
:1024700001714371210A8171C47102466B4604499E
:102480000548FEF7B3F938BD4FF40075E1E70000E9
:1024900058050020620000205003002000B58BB0DA
:1024A00000200121CDE906010891009001900290E1
:1024B00003900590049069460C48FEF7FBF90B4821
:1024C000FEF7A2FD02210948FEF77EF90E200990D1
:1024D000059069460648FEF7EDF90548FEF794FDBC
:1024E00002210348FEF770F90BB000BD280300205D
:1024F000500300202DE9F0412D4F6FF06D080025AD
:10250000B7F900002B4C41F63E76404509DAB4F9A4
:10251000FA0000F69F70B04203D8012000F050F896
:10252000A0B1B7F900006E2812DDB4F95A1001F617
:102530009F71B1420CD8204AD4F8F410914207DAC6
:102540004FF6EC714843A4F8E60003E03888F7E75B
:10255000A4F8E650B7F90200404509DAB4F95A0088
:1025600000F69F70B04203D8002000F029F8C0B1F7
:10257000B7F902006E2816DDB4F95A1001F69F7102
:10258000B14210D80D4AD4F8D41091420BDA00BFF2
:1025900000EB80008000A4F8C600A4F8A600BDE807
:1025A000F0817888F4E7A4F8C650A4F8A650F6E7BE
:1025B000C0040020604200200040354500803B45BB
:1025C000094A48B1012809D0022809D003280AD1B4
:1025D00051151046FEF774BF4021FAE78021F8E755
:1025E0004FF48071F5E7704700080240FEF780FF66
:1025F000FFF732FDFFF76CFCFFF71AFCFFF7B0FCAA
:10260000FFF7CAFCFFF7D0FBFFF7F0FB00F0A2FCDE
:10261000FFF744FFFFF732FC00F0DFF9FEE7014669
:102620000020842900D0C81C7047000070B5394EC6
:1026300000253046F17A807A374C012923D00329CE
:1026400039D0E580A4F82650B6F906006E2808DDDA
:10265000B4F95A0010F57A6F03DD0320FFF7B0FFDD
:10266000A8B3B6F9060010F16E0F09DAB4F95A00F2
:1026700041F29411884203DA0220FFF7A1FF38B338
:10268000A4F8465070BD012809D003280DD00228B7
:10269000DAD14FF20420E08040F6FC5024E04FF203
:1026A000F010E0804FF461601EE04FF2FA10E0801D
:1026B00040F6066018E001280BD003280FD002284E
:1026C000C2D14FF2AC40E08040F654300CE00DE057
:1026D0001DE04FF2E430E08040F61C4004E04FF291
:1026E0004840E08040F6B830E084ADE70B49606DCB
:1026F0000B4A0144914202D30A49884202DD4EF658
:10270000784001E048F6D020A4F8460070BD47F2BA
:102710003050F9E7C004002060420020FF7F92BAE9
:10272000FF9F120000A0D7451F49204A01EB40102F
:10273000D0ED020A90ED030A30EEC00A80ED040AE3
:1027400010EE101AC0ED030ADFED190A914202DD06
:1027500030EE600A06E010EE101A164A914203D9D4
:1027600030EE200A80ED040ADFED131AB0EE401AB5
:10277000124A81EE210A80ED040A90ED051A31EE2D
:10278000000A10EE101A80ED050A914202DD30EECB
:10279000600A06E0B5EEC00AF1EE10FA03D230EEA0
:1027A000200A80ED050A70476042002000F07F4556
:1027B00000F8FF4500F07FC50000B44300F8FF4576
:1027C0001F49204A01EB4010D0ED020A90ED030AA8
:1027D00030EEC00A80ED040A10EE101AC0ED030AB4
:1027E000DFED190A914202DD30EE600A06E010EEDC
:1027F000101A164A914203D930EE200A80ED040ADD
:10280000DFED131AB0EE401A124A81EE210A80ED74
:10281000040A90ED051A31EE400A10EE101A80ED10
:10282000050A914202DD30EE600A06E0B5EEC00A0C
:10283000F1EE10FA03D230EE200A80ED050A70475F
:102840006042002000F07F4500F8FF4500F07FC5A2
:1028500000409C4500F8FF4500B50220FFF7B0FF9F
:10286000052000F01BF8062000F018F8072000F003
:1028700061F803205DF804EBFFF756BF064A00201D
:1028800002EB4011401C91ED020AC0B281ED030A37
:102890000728F5D370470000604200201F49204AF6
:1028A00001EB4010D0ED020A90ED030A30EEC00AB1
:1028B00080ED040A10EE101AC0ED030ADFED190ACC
:1028C000914202DD30EE600A06E010EE101A164A60
:1028D000914203D930EE200A80ED040ADFED131A8D
:1028E000B0EE401A124A81EE210A80ED040A90ED02
:1028F000051A31EE000A10EE101A80ED050A914219
:1029000002DD30EE600A06E0B5EEC00AF1EE10FA24
:1029100003D230EE200A80ED050A704760420020A5
:1029200000F07F4500F8FF4500F07FC50000C84279
:1029300000F8FF451F49204A01EB4010D0ED020A84
:1029400090ED030A30EEC00A80ED040A10EE101A72
:10295000C0ED030ADFED190A914202DD30EE600A94
:1029600006E010EE101A164A914203D930EE200A02
:1029700080ED040ADFED131AB0EE401A124A81EE20
:10298000210A80ED040A90ED051A31EE400A10EE9E
:10299000101A80ED050A914202DD30EE600A06E071
:1029A000B5EEC00AF1EE10FA03D230EE200A80ED47
:1029B000050A70476042002000F07F4500F8FF459F
:1029C00000F07FC50000C84200F8FF4510B500B90F
:1029D000012000F047FC002010BD10B500F068FC9D
:1029E000002010BD7FB50D4604464169B0F90800CE
:1029F00081B1A16971B1FFF712FED4E905128DE82A
:102A00000700D4E900102B46226900F07AFD0390FC
:102A100004B070BDFFF703FE03A9CDE90001208AD1
:102A20002B4682B2D4E9001000F03EFD012801D00F
:102A30000020EDE70398EBE780ED050AC0ED060AFC
:102A400090ED071A70EE600A80ED081AC0ED070AD3
:102A500090ED000A60EE201AC0ED091A90ED0A0A06
:102A600090ED012A02EE200A70EEC10A80ED0A0AFA
:102A700090ED021A20EE812A80ED0B2AD0ED030A98
:102A8000B1EE601AB4EEC10AF1EE10FA02D8B0EE5F
:102A9000410A06E0B4EEE00AF1EE10FA01DBB0EE16
:102AA000600A80ED0A0A31EE800A30EE020A80EDFB
:102AB0000C0AD0ED040AB1EE601AB4EEC10AF1EED0
:102AC00010FA02D8B0EE410A06E0B4EEE00AF1EEE8
:102AD00010FA01DBB0EE600A80ED0C0A704791ED50
:102AE000001A80ED001A91ED011A80ED011A91EDA6
:102AF000031A80ED021A80ED030AC0ED040A704744
:102B00002DE9F041184C0F460546E6682068001D87
:102B100000F0E0FA38B9206890F82C1001208840C5
:102B2000216981432161681C07D137B12168BDE863
:102B3000F0410E48091D00F011BB20683544B54234
:102B40004560216805D2A06BBDE8F041091D00F089
:102B5000EDBA606B091D00F0E9FAA06A854200D267
:102B6000A562BDE8F08100006C0000204C0600204A
:102B70002DE9F041054600F0FDFA2E4CA068401CFE
:102B8000A06020682C4F10B1606940B32DE0256033
:102B9000A068012829D1002606EB860007EB8000FB
:102BA00000F0B6FA761C072EF6D323488C3000F0DE
:102BB000AFFA2148A03000F0ABFA1F48B43000F063
:102BC000A7FA1D48C83000F0A3FA1B48DC3000F01B
:102BD0009FFA19488C3060631430A06305E02068C8
:102BE000E96AC06A884200D82560606A401C606259
:102BF000E96A0120226988401043206101EB8100CD
:102C000007EB8000291D00F0A9FA00F0D3FA6069F3
:102C100000280CD02068E96AC06A884207D20749B8
:102C20004FF080500860BFF34F8FBFF36F8FBDE848
:102C3000F08100006C0000207005002004ED00E031
:102C400010B5044690F8510058B101280CD0022864
:102C50000FD0502080F31188BFF34F8FBFF36F8FD9
:102C6000FEE7206B00F0BAFA2046BDE8104000F005
:102C7000B5BA10BD10484FF47051420706D0C01DC0
:102C80000D4920F00700411AC1F570510B4A00238D
:102C90000144C2E900030839183A21F00701116024
:102CA0004B600B600B1AC0E9001393604FF00040BB
:102CB000536050617047000060060020C000002093
:102CC000144E154CA6F1C8074FF08058DFF84C9011
:102CD00012E000BF00F04EFAF068C568281D00F051
:102CE000F9F9A068401EA0606068401E606000F0B6
:102CF00061FA2846FFF7A4FF60680028EAD1386827
:102D00000128F9D9C9F80080BFF34F8FBFF36F8F47
:102D1000F2E70000380600206C00002004ED00E01F
:102D20002DE9F0479A46DDE9098481466FF00303F7
:102D3000206B03EB82021044089E20F007077807FF
:102D400007D0502080F31188BFF34F8FBFF36F8FF0
:102D5000FEE7002561B1002023180A5C83F83420C7
:102D60000A5C12B1401C1028F6D384F8435001E0ED
:102D700084F83450072E00D30626E662C4E91165B4
:102D8000201D00F0D0F904F1180000F0CCF9246106
:102D9000C6F107006462A061E56484F850505246B1
:102DA0004946384600F0C0F82060B8F1000F01D065
:102DB000C8F80040BDE8F08730B5114900E0114681
:102DC0000A688242FBD34B685C18844203D1406896
:102DD00018444860084643681C18944209D1084CBE
:102DE000183C2468A24209D052681A4442600A681A
:102DF00012680260814200D0086030BD0460F9E7CB
:102E0000C00000200648416B096829B1416BC968C0
:102E1000C9684968816270474FF0FF31FAE70000E6
:102E20006C00002008484068401C4FF0500080F3C0
:102E3000118804D0BFF34F8FBFF36F8FFEE7BFF34E
:102E40004F8FBFF36F8FFEE7C80000202DE9F041E0
:102E50000546002700F062FA324E306808B9FFF7E5
:102E600009FF706905424ED1C5B3083568070ED019
:102E700005F00700C0F108000544680707D050209E
:102E800080F31188BFF34F8FBFF36F8FFEE72DB331
:102E90007068854237D82348183001460C6801E035
:102EA00020460C466168A94202D221680029F7D168
:102EB00031688C4227D00768216801606068083754
:102EC000411B10290FD96019420708D0502080F308
:102ED0001188BFF34F8FBFF36F8FFEE713E04160A0
:102EE0006560FFF769FF61687068401A7060B268DA
:102EF000904200D2B060706901430020C4E9000133
:102F0000F068401CF06000F09BFB780707D0502071
:102F100080F31188BFF34F8FBFF36F8FFEE7384602
:102F2000BDE8F081A800002010B5031F4FF08074A9
:102F30001C601B1F21F001011960191F044B0B605D
:102F400014390A60091F6FF0020244380A6010BD8C
:102F5000252E000802492422A1F12400FFF73CB8E5
:102F6000FA040020F0B5002855D0002953D002788B
:102F7000437842EA0322C2F30A020A804378847843
:102F8000DB0843EA4413C3F30A034B808478C57813
:102F9000A40944EA8504057944EA8524C4F30A04B3
:102FA0008C80057946796D0845EAC615C5F30A0592
:102FB000CD804679C6F301168E724679B609CE7277
:102FC0008679C77946EA07268E81067A477A46EAE5
:102FD0000726CE81867AC77A46EA07260E82067BC6
:102FE0008E74467BCE74867BC77B46EA07268E822C
:102FF000067C407CA2F580620A80A3F580634B804A
:10300000A4F5806446EA00208C80A5F58065CD801B
:10301000A0F580600881F0BD2A48B7EE001AC17A99
:103020002948012990EC020A06D0032904D070EE49
:10303000C10AC0ED010A07E070EE810A0129C0ED66
:10304000010A1AD0032918D030EE010A1F4A80ED78
:10305000000AB2F9261000EE101AB8EEC01A9FED61
:103060001C0AF4EEC10AF1EE10FA09DD00EE901A26
:10307000F8EEE00AC0ED010A09E030EE410AE5E7AA
:10308000F5EEC00AF1EE10FA01D280ED010AB2F9B4
:103090000610D0ED000A01EE101AB8EEC11AF4EED7
:1030A000C10AF1EE10FA04D200EE101AB8EEC00A0E
:1030B00004E0F5EEC00AF1EE10FA01DD80ED000A41
:1030C00070470000C0040020300000206042002053
:1030D00000000000D0E9013201699A60D0E90123C3
:1030E0005A604A68824201D182684A6000220261C5
:1030F0000868401E0860086870470000034B0360C2
:1031000003F154000860802010607047D400002054
:1031100000F108014FF0FF32C0E90112C160016106
:1031200000210160704700210161704730B50B68D4
:103130005A1C02D000F1080202E0026904E02246B3
:10314000546825689D42FAD953684B6099608A603B
:10315000516008610168491C016030BD42684A60E5
:1031600093688B6093685960916008610168491C9D
:1031700001607047502080F31188BFF34F8FBFF379
:103180006F8F0A494868401C486001280CD10848E4
:10319000006810F0FF0F07D0502080F31188BFF3B4
:1031A0004F8FBFF36F8FFEE770470000C80000200D
:1031B00004ED00E00849486828B1401E486001D18C
:1031C00080F311887047502080F31188BFF34F8F30
:1031D000BFF36F8FFEE70000C800002070B5002825
:1031E0002AD0164DA0F1080460686969084207D129
:1031F000502080F31188BFF34F8FBFF36F8FFEE72E
:1032000022683AB1502080F31188BFF34F8FBFF38B
:103210006F8FFEE78843606000F080F8606869683F
:10322000084468602046FFF7C7FD2869401C2861F4
:10323000BDE8704000F004BA70BD0000A800002096
:103240004FF0E02000210161816105494FF47A725D
:103250000968B1FBF2F1491E416107210161704724
:103260001C00002010B5020014D00F48006B38B1CC
:10327000502080F31188BFF34F8FBFF36F8FFEE7AD
:1032800000F04CF800211046FFF73AFC00F0D8F9A6
:10329000002807D105494FF080500860BFF34F8FD9
:1032A000BFF36F8F10BD00006C00002004ED00E044
:1032B00010B586B00024039405AA04A903A80494B9
:1032C000FFF71CFFDDE903010094CDE901100023A5
:1032D0000EA11048059A00F014F90F490028C862A1
:1032E00011D0502080F31188BFF34F8FBFF36F8F41
:1032F0004FF0FF30886201204861CC6006B0BDE825
:10330000104000F041B806B010BD000049444C45E3
:1033100000000000C12C00086C0000200248016B76
:10332000491C0163704700006C0000201448016BC9
:1033300011B10121C16170470021C1610169B1FA78
:1033400081F1C1F11F0101EB81020E4951F82230D8
:103350006BB101EB820101F108034A6852684A60CF
:103360009A4201D152684A60D1680160704750208A
:1033700080F31188BFF34F8FBFF36F8FFEE700001C
:103380006C000020700500201CB537480168374AE2
:10339000914207D1502080F31188BFF34F8FBFF3C4
:1033A0006F8FFEE700683149491E884207D15020DF
:1033B00080F31188BFF34F8FBFF36F8FFEE72C4967
:1033C00008780190FF20087008788DF800009DF8BB
:1033D00000009DF8002000F0F000904207D050203F
:1033E00080F31188BFF34F8FBFF36F8FFEE79DF817
:1033F0000000204C00F0500020700720A06005E085
:103400009DF8002052008DF80020401E9DF80020FD
:103410001206F5D4A060032807D0502080F311884D
:10342000BFF34F8FBFF36F8FFEE74FF44070A06084
:10343000019808700C482030016841F47001016067
:10344000016841F070410160FFF7FAFE0020606002
:10345000FCF72CFF0848016841F040410160FCF78F
:1034600011FF00201CBD000000ED00E071C20F4103
:1034700000E400E0C800002034EF00E010B5502068
:1034800080F31188BFF34F8FBFF36F8F00F072F896
:1034900018B104494FF080500860002080F3118873
:1034A00010BD000004ED00E02DE9FF5F8346DDE97B
:1034B0000E87994616468A469000FFF7C7FC05001E
:1034C0001CD05420FFF7C2FC040014D00020256358
:1034D00084F85100CDE90240CDE900874B463246E1
:1034E00051465846FFF71CFC2046FFF741FB0120E0
:1034F00004B0BDE8F09F2846FFF770FE4FF0FF30A4
:10350000F6E7F0B585B0DDE90B640A9DA6B1DCB144
:10351000542700972663022684F85160002604AFE2
:10352000CDE90246CDE90057FFF7FAFB2046FFF749
:103530001FFB049805B0F0BD502080F31188BFF345
:103540004F8FBFF36F8FFEE7502080F31188BFF3DA
:103550004F8FBFF36F8FFEE70548416919B1006BCC
:1035600018B100207047012070470220704700000A
:103570006C0000202DE9F0412F4C0026206B28B173
:10358000A069401CA0613046BDE8F081E5686D1C73
:10359000E56013D1606B006838B1502080F311886A
:1035A000BFF34F8FBFF36F8FFEE7606BA16B61635B
:1035B000A063206A401C2062FFF724FCA06ADFF8A9
:1035C0007C80854209D3606B0068A0B1606BC068E5
:1035D000C7687868854211D2A0622068C06A00EB93
:1035E000800158F82100012800D90126E06900284F
:1035F000C9D00126C7E74FF0FF30EDE7381DFFF7D0
:1036000069FDB86A18B107F11800FFF763FDF96AA0
:103610000120226988401043206101EB810108EB01
:103620008100391DFFF79AFDF86A2168C96A88424E
:10363000C9D30126C7E700006C00002070050020F8
:103640002DE9F0472C4D00242746286B38B1FFF7B1
:1036500091FD286B401E2863286B40B146E0502046
:1036600080F31188BFF34F8FBFF36F8FFEE7A96818
:10367000224E0120D1B3A6F1B40980463068E8B1EA
:10368000F068C46804F11800FFF724FD201DFFF75F
:1036900021FDE06A2A6908FA00F11143296100EB73
:1036A000800109EB8100211DFFF758FDE06A2968C0
:1036B000C96A8842E2D3C5F81C80DFE70CB1FFF786
:1036C000A1FBAC6944B14646FFF754FF00B1EE617F
:1036D000641EF9D10020A861E86938B108490127C2
:1036E00038070860BFF34F8FBFF36F8FFFF762FD9E
:1036F0003846BDE8F08700006C000020240600205A
:1037000004ED00E04FF04070E1EE100A7047000059
:103710008437000839200008000000000000000085
:103720008000000000000000000000009C3700083E
:1037300045060008FDFF00000000000080000000BA
:10374000000000000000000090370008E1060008BB
:10375000FDFF0000000000008000000000000000ED
:103760000000000000061016000610160000000001
:103770000000000001020304060708090000000021
:103780000102030464656661756C745461736B00B7
:103790004672696374696F6E000000004461727460
:1037A00000000000C437000800000020D400000022
:1037B0000002000898380008D40000202C4C0000BB
:1037C0001C020008000000000000000000000000D3
:1037D00000000000010000001000000000000000D8
:1037E0000024F400000000000000803F0000000002
:1037F0000000000000000000000000000000204168
:1038000000000000000000000000803F00000000F9
:103810000000803F000000000000000000000000E9
:103820000000000000000000000000000000000098
:103830000000000000000000000000000000000088
:103840000000000000000000000000000000000078
:103850000000000000000000000000000000000068
:103860000000000000000000000000000000000058
:103870000000000000000000000000000000000048
:103880000000000000000000000000000000000038
:08389000AAAAAAAA0000000088
:04000005080001C529
:00000001FF
